{
  "contractName": "Crowdfunding",
  "abi": [
    {
      "inputs": [],
      "stateMutability": "nonpayable",
      "type": "constructor"
    },
    {
      "anonymous": false,
      "inputs": [
        {
          "indexed": true,
          "internalType": "address",
          "name": "_from",
          "type": "address"
        },
        {
          "indexed": true,
          "internalType": "address",
          "name": "_to",
          "type": "address"
        }
      ],
      "name": "changeOwner",
      "type": "event"
    },
    {
      "anonymous": false,
      "inputs": [
        {
          "indexed": true,
          "internalType": "address",
          "name": "_from",
          "type": "address"
        },
        {
          "indexed": false,
          "internalType": "uint256",
          "name": "_value",
          "type": "uint256"
        }
      ],
      "name": "funding",
      "type": "event"
    },
    {
      "anonymous": false,
      "inputs": [
        {
          "indexed": true,
          "internalType": "address",
          "name": "_to",
          "type": "address"
        },
        {
          "indexed": false,
          "internalType": "uint256",
          "name": "_value",
          "type": "uint256"
        }
      ],
      "name": "payment",
      "type": "event"
    },
    {
      "anonymous": false,
      "inputs": [
        {
          "indexed": true,
          "internalType": "address",
          "name": "_from",
          "type": "address"
        },
        {
          "indexed": false,
          "internalType": "uint256",
          "name": "_value",
          "type": "uint256"
        }
      ],
      "name": "refund",
      "type": "event"
    },
    {
      "anonymous": false,
      "inputs": [
        {
          "indexed": true,
          "internalType": "address",
          "name": "_from",
          "type": "address"
        },
        {
          "indexed": false,
          "internalType": "uint256",
          "name": "_value",
          "type": "uint256"
        }
      ],
      "name": "setTarget",
      "type": "event"
    },
    {
      "anonymous": false,
      "inputs": [
        {
          "indexed": true,
          "internalType": "address",
          "name": "_from",
          "type": "address"
        },
        {
          "indexed": false,
          "internalType": "uint256",
          "name": "_value",
          "type": "uint256"
        }
      ],
      "name": "setTime",
      "type": "event"
    },
    {
      "inputs": [
        {
          "internalType": "uint256",
          "name": "_target",
          "type": "uint256"
        }
      ],
      "name": "SetTarget",
      "outputs": [
        {
          "internalType": "bool",
          "name": "success",
          "type": "bool"
        }
      ],
      "stateMutability": "nonpayable",
      "type": "function"
    },
    {
      "inputs": [
        {
          "internalType": "uint256",
          "name": "_stop",
          "type": "uint256"
        }
      ],
      "name": "SetTime",
      "outputs": [
        {
          "internalType": "bool",
          "name": "success",
          "type": "bool"
        }
      ],
      "stateMutability": "nonpayable",
      "type": "function"
    },
    {
      "inputs": [],
      "name": "ShowTarget",
      "outputs": [
        {
          "internalType": "uint256",
          "name": "",
          "type": "uint256"
        }
      ],
      "stateMutability": "view",
      "type": "function",
      "constant": true
    },
    {
      "inputs": [],
      "name": "ShowStop",
      "outputs": [
        {
          "internalType": "uint256",
          "name": "",
          "type": "uint256"
        }
      ],
      "stateMutability": "view",
      "type": "function",
      "constant": true
    },
    {
      "inputs": [],
      "name": "ShowStart",
      "outputs": [
        {
          "internalType": "uint256",
          "name": "",
          "type": "uint256"
        }
      ],
      "stateMutability": "view",
      "type": "function",
      "constant": true
    },
    {
      "inputs": [
        {
          "internalType": "address",
          "name": "_owner",
          "type": "address"
        }
      ],
      "name": "ChangeOwner",
      "outputs": [
        {
          "internalType": "bool",
          "name": "success",
          "type": "bool"
        }
      ],
      "stateMutability": "nonpayable",
      "type": "function"
    },
    {
      "inputs": [],
      "name": "ShowOwner",
      "outputs": [
        {
          "internalType": "address",
          "name": "",
          "type": "address"
        }
      ],
      "stateMutability": "view",
      "type": "function",
      "constant": true
    },
    {
      "inputs": [],
      "name": "IsTimeUp",
      "outputs": [
        {
          "internalType": "bool",
          "name": "success",
          "type": "bool"
        }
      ],
      "stateMutability": "view",
      "type": "function",
      "constant": true
    },
    {
      "inputs": [
        {
          "internalType": "address payable",
          "name": "beneficiary",
          "type": "address"
        }
      ],
      "name": "Funding",
      "outputs": [
        {
          "internalType": "bool",
          "name": "success",
          "type": "bool"
        }
      ],
      "stateMutability": "payable",
      "type": "function",
      "payable": true
    },
    {
      "inputs": [],
      "name": "Refund",
      "outputs": [
        {
          "internalType": "bool",
          "name": "success",
          "type": "bool"
        }
      ],
      "stateMutability": "payable",
      "type": "function",
      "payable": true
    },
    {
      "inputs": [],
      "name": "Balance",
      "outputs": [
        {
          "internalType": "uint256",
          "name": "",
          "type": "uint256"
        }
      ],
      "stateMutability": "view",
      "type": "function",
      "constant": true
    }
  ],
  "bytecode": "0x608060405234801561001057600080fd5b5033600560006101000a81548173ffffffffffffffffffffffffffffffffffffffff021916908373ffffffffffffffffffffffffffffffffffffffff160217905550611207806100616000396000f3fe60806040526004361061009c5760003560e01c806381bc8a2b1161006457806381bc8a2b1461018257806396ce267a146101ad5780639938ae90146101d85780639da8da2d14610203578063f28532921461022e578063f4d0b67f1461026b5761009c565b806306317efe146100a15780630ef67887146100de5780631b1adb45146101095780635d2686291461013457806374fd33b914610152575b600080fd5b3480156100ad57600080fd5b506100c860048036038101906100c39190610b27565b6102a8565b6040516100d59190610b6f565b60405180910390f35b3480156100ea57600080fd5b506100f36103f8565b6040516101009190610b99565b60405180910390f35b34801561011557600080fd5b5061011e610400565b60405161012b9190610b99565b60405180910390f35b61013c610408565b6040516101499190610b6f565b60405180910390f35b61016c60048036038101906101679190610c12565b6105d0565b6040516101799190610b6f565b60405180910390f35b34801561018e57600080fd5b50610197610895565b6040516101a49190610b6f565b60405180910390f35b3480156101b957600080fd5b506101c26108aa565b6040516101cf9190610c60565b60405180910390f35b3480156101e457600080fd5b506101ed6108d4565b6040516101fa9190610b99565b60405180910390f35b34801561020f57600080fd5b506102186108de565b6040516102259190610b99565b60405180910390f35b34801561023a57600080fd5b5061025560048036038101906102509190610ca7565b6108e8565b6040516102629190610b6f565b60405180910390f35b34801561027757600080fd5b50610292600480360381019061028d9190610b27565b610a1e565b60405161029f9190610b6f565b60405180910390f35b600081600281905550600060025414156102f7576040517f08c379a00000000000000000000000000000000000000000000000000000000081526004016102ee90610d31565b60405180910390fd5b6000151560018054906101000a900460ff1615151461034b576040517f08c379a000000000000000000000000000000000000000000000000000000000815260040161034290610d9d565b60405180910390fd5b60001515600160009054906101000a900460ff161515146103a1576040517f08c379a000000000000000000000000000000000000000000000000000000000815260040161039890610e09565b60405180910390fd5b3373ffffffffffffffffffffffffffffffffffffffff167f51663fd415fc4b79f17339e460d8039c6c83163d0462229b767b0136b5862da9836040516103e79190610b99565b60405180910390a260019050919050565b600047905090565b600042905090565b600060018060016101000a81548160ff0219169083151502179055506003544211610468576040517f08c379a000000000000000000000000000000000000000000000000000000000815260040161045f90610e75565b60405180910390fd5b60035442116104ac576040517f08c379a00000000000000000000000000000000000000000000000000000000081526004016104a390610ee1565b60405180910390fd5b60008060003373ffffffffffffffffffffffffffffffffffffffff1673ffffffffffffffffffffffffffffffffffffffff1681526020019081526020016000205490503373ffffffffffffffffffffffffffffffffffffffff166108fc829081150290604051600060405180830381858888f19350505050158015610535573d6000803e3d6000fd5b5060008060003373ffffffffffffffffffffffffffffffffffffffff1673ffffffffffffffffffffffffffffffffffffffff168152602001908152602001600020819055503373ffffffffffffffffffffffffffffffffffffffff167f410085df54bf273a749e521cef84e728e697569a719b84888672469ca66d58d4346040516105c09190610b99565b60405180910390a2600191505090565b6000610623346000803373ffffffffffffffffffffffffffffffffffffffff1673ffffffffffffffffffffffffffffffffffffffff16815260200190815260200160002054610ac090919063ffffffff16565b6000803373ffffffffffffffffffffffffffffffffffffffff1673ffffffffffffffffffffffffffffffffffffffff1681526020019081526020016000208190555061067a34600454610ac090919063ffffffff16565b60048190555042600354116106c4576040517f08c379a00000000000000000000000000000000000000000000000000000000081526004016106bb90610f4d565b60405180910390fd5b6000151560018054906101000a900460ff161515146106e257600080fd5b60001515600160009054906101000a900460ff16151514610738576040517f08c379a000000000000000000000000000000000000000000000000000000000815260040161072f90610fb9565b60405180910390fd5b60025447111561077d576040517f08c379a000000000000000000000000000000000000000000000000000000000815260040161077490611025565b60405180910390fd5b3373ffffffffffffffffffffffffffffffffffffffff167fad13e1d80ad20ce31aac534c634d7e70a77f11f9b3a9e30d0d2f92bd12d4f24e346040516107c39190610b99565b60405180910390a2600254471061088c5760018060006101000a81548160ff0219169083151502179055508173ffffffffffffffffffffffffffffffffffffffff166108fc479081150290604051600060405180830381858888f19350505050158015610834573d6000803e3d6000fd5b5060006002819055508173ffffffffffffffffffffffffffffffffffffffff167f67a09c23c04687b083f6e04b4fd9aa1a7dad9797eb4d30766fb4e938d02fda54346040516108839190610b99565b60405180910390a25b60019050919050565b600060018054906101000a900460ff16905090565b6000600560009054906101000a900473ffffffffffffffffffffffffffffffffffffffff16905090565b6000600354905090565b6000600254905090565b6000600560009054906101000a900473ffffffffffffffffffffffffffffffffffffffff1673ffffffffffffffffffffffffffffffffffffffff163373ffffffffffffffffffffffffffffffffffffffff161461097a576040517f08c379a000000000000000000000000000000000000000000000000000000000815260040161097190611091565b60405180910390fd5b81600560006101000a81548173ffffffffffffffffffffffffffffffffffffffff021916908373ffffffffffffffffffffffffffffffffffffffff1602179055508173ffffffffffffffffffffffffffffffffffffffff163373ffffffffffffffffffffffffffffffffffffffff167ff00d4b5dada0c24c7fb2a5db4750ec67a2d8451700e0be719b9abbfc2be6db9360405160405180910390a360019050919050565b6000428211610a62576040517f08c379a0000000000000000000000000000000000000000000000000000000008152600401610a59906110fd565b60405180910390fd5b816003819055503373ffffffffffffffffffffffffffffffffffffffff167faee84f6b856a7642740e0cf98e5aeae057c2035ebac1f06e3e1388b49505aebe83604051610aaf9190610b99565b60405180910390a260019050919050565b6000808284610acf919061114c565b905083811015610ae257610ae16111a2565b5b8091505092915050565b600080fd5b6000819050919050565b610b0481610af1565b8114610b0f57600080fd5b50565b600081359050610b2181610afb565b92915050565b600060208284031215610b3d57610b3c610aec565b5b6000610b4b84828501610b12565b91505092915050565b60008115159050919050565b610b6981610b54565b82525050565b6000602082019050610b846000830184610b60565b92915050565b610b9381610af1565b82525050565b6000602082019050610bae6000830184610b8a565b92915050565b600073ffffffffffffffffffffffffffffffffffffffff82169050919050565b6000610bdf82610bb4565b9050919050565b610bef81610bd4565b8114610bfa57600080fd5b50565b600081359050610c0c81610be6565b92915050565b600060208284031215610c2857610c27610aec565b5b6000610c3684828501610bfd565b91505092915050565b6000610c4a82610bb4565b9050919050565b610c5a81610c3f565b82525050565b6000602082019050610c756000830184610c51565b92915050565b610c8481610c3f565b8114610c8f57600080fd5b50565b600081359050610ca181610c7b565b92915050565b600060208284031215610cbd57610cbc610aec565b5b6000610ccb84828501610c92565b91505092915050565b600082825260208201905092915050565b7f54617267657420616d6f756e742063616e6e6f74206265207a65726f00000000600082015250565b6000610d1b601c83610cd4565b9150610d2682610ce5565b602082019050919050565b60006020820190508181036000830152610d4a81610d0e565b9050919050565b7f54696d6520616c72656164792072656163686564000000000000000000000000600082015250565b6000610d87601483610cd4565b9150610d9282610d51565b602082019050919050565b60006020820190508181036000830152610db681610d7a565b9050919050565b7f54617267657420616c7265616479207265616368656400000000000000000000600082015250565b6000610df3601683610cd4565b9150610dfe82610dbd565b602082019050919050565b60006020820190508181036000830152610e2281610de6565b9050919050565b7f54696d65206e6f74207265616368656400000000000000000000000000000000600082015250565b6000610e5f601083610cd4565b9150610e6a82610e29565b602082019050919050565b60006020820190508181036000830152610e8e81610e52565b9050919050565b7f46756e64696e6720756e676f696e670000000000000000000000000000000000600082015250565b6000610ecb600f83610cd4565b9150610ed682610e95565b602082019050919050565b60006020820190508181036000830152610efa81610ebe565b9050919050565b7f54696d6520726561636865640000000000000000000000000000000000000000600082015250565b6000610f37600c83610cd4565b9150610f4282610f01565b602082019050919050565b60006020820190508181036000830152610f6681610f2a565b9050919050565b7f5461726765742052656163686564000000000000000000000000000000000000600082015250565b6000610fa3600e83610cd4565b9150610fae82610f6d565b602082019050919050565b60006020820190508181036000830152610fd281610f96565b9050919050565b7f5461726765742069732072656163686564000000000000000000000000000000600082015250565b600061100f601183610cd4565b915061101a82610fd9565b602082019050919050565b6000602082019050818103600083015261103e81611002565b9050919050565b7f596f7520617265206e6f7420746865204f776e65720000000000000000000000600082015250565b600061107b601583610cd4565b915061108682611045565b602082019050919050565b600060208201905081810360008301526110aa8161106e565b9050919050565b7f54696d6572206973206c65737300000000000000000000000000000000000000600082015250565b60006110e7600d83610cd4565b91506110f2826110b1565b602082019050919050565b60006020820190508181036000830152611116816110da565b9050919050565b7f4e487b7100000000000000000000000000000000000000000000000000000000600052601160045260246000fd5b600061115782610af1565b915061116283610af1565b9250827fffffffffffffffffffffffffffffffffffffffffffffffffffffffffffffffff038211156111975761119661111d565b5b828201905092915050565b7f4e487b7100000000000000000000000000000000000000000000000000000000600052600160045260246000fdfea2646970667358221220130bbcd6e598a4df7a3c6e72fdf80792b0fa91fdc97862d30f6c3678612d7e8364736f6c634300080b0033",
  "immutableReferences": {},
  "source": "pragma solidity ^0.8.11;\r\nlibrary SafeMath {\r\n  /**\r\n   * SafeMath mul function\r\n   * @dev function for safe multiply\r\n   **/\r\n  function mul(uint256 a, uint256 b) internal pure returns (uint256) {\r\n    uint256 c = a * b;\r\n    assert(a == 0 || c / a == b);\r\n    return c;\r\n  }\r\n  \r\n  /**\r\n   * SafeMath div funciotn\r\n   * @dev function for safe devide\r\n   **/\r\n  function div(uint256 a, uint256 b) internal pure returns (uint256) {\r\n    uint256 c = a / b;\r\n    return c;\r\n  }\r\n  \r\n  /**\r\n   * SafeMath sub function\r\n   * @dev function for safe subtraction\r\n   **/\r\n  function sub(uint256 a, uint256 b) internal pure returns (uint256) {\r\n    assert(b <= a);\r\n    return a - b;\r\n  }\r\n  \r\n  /**\r\n   * SafeMath add fuction \r\n   * @dev function for safe addition\r\n   **/\r\n  function add(uint256 a, uint256 b) internal pure returns (uint256) {\r\n    uint256 c = a + b;\r\n    assert(c >= a);\r\n    return c;\r\n  }\r\n}\r\ncontract Crowdfunding\r\n{\r\n    using SafeMath for uint;\r\n    mapping(address => uint)Payments;\r\n    bool targetReached;\r\n    bool timeReached;\r\n    uint private target;\r\n    uint private stop;\r\n    uint private BalanceRecieved;\r\n    address private owner;\r\n    event setTime(address indexed _from,uint _value);\r\n    event setTarget(address indexed _from,uint _value);\r\n    event changeOwner(address indexed _from,address indexed _to);\r\n    event refund(address indexed _from,uint _value);\r\n    event funding(address indexed _from,uint _value);\r\n    event payment(address indexed _to,uint _value);\r\n\r\n    constructor(){\r\n        owner = msg.sender;\r\n    }\r\n\r\n    function SetTarget(uint _target)external returns(bool success){\r\n        target = _target;\r\n         require(target != 0,\"Target amount cannot be zero\");\r\n         require(timeReached == false,\"Time already reached\");\r\n          require(targetReached == false,\"Target already reached\");\r\n          emit setTarget(msg.sender, _target);\r\n          return true;\r\n          \r\n    }\r\n    function SetTime(uint _stop)external returns(bool success){\r\n        require(_stop > block.timestamp,\"Timer is less\");\r\n        stop = _stop;\r\n        emit setTime(msg.sender,_stop);\r\n        return true;\r\n    }\r\n    \r\n    function ShowTarget()external view returns(uint){\r\n        return target;\r\n    }\r\n\r\n    function ShowStop()external view returns(uint){\r\n        return stop;\r\n    }\r\n\r\n    function ShowStart()external view returns(uint){\r\n     return block.timestamp;\r\n    }\r\n   \r\n\r\n    function ChangeOwner(address _owner)external returns(bool success){\r\n        require(msg.sender == owner,\"You are not the Owner\");\r\n        owner = _owner;\r\n        emit changeOwner(msg.sender, _owner);\r\n        return true;\r\n    }\r\n\r\n    function ShowOwner()external view returns(address){\r\n        return owner;\r\n    }\r\n    function IsTimeUp()external view returns(bool success){\r\n       \r\n      return timeReached;\r\n        \r\n    }\r\n\r\n\r\n    function Funding(address payable beneficiary)external payable returns (bool success){\r\n        Payments[msg.sender] = Payments[msg.sender].add(msg.value);\r\n        BalanceRecieved = BalanceRecieved.add(msg.value);\r\n        require(stop > block.timestamp,\"Time reached\");\r\n        require(timeReached == false);\r\n        require(targetReached == false , \"Target Reached\");\r\n        require(address(this).balance <= target,\"Target is reached\");\r\n        emit funding(msg.sender,msg.value);\r\n\r\n       if(address(this).balance >= target){\r\n           targetReached = true;\r\n           beneficiary.transfer(address(this).balance);  \r\n           target = 0;\r\n           emit payment(beneficiary,msg.value);\r\n       }\r\n              \r\n       return true;\r\n       }\r\n\r\n       function Refund()external payable returns(bool success){\r\n           timeReached = true;\r\n            require(block.timestamp > stop,\"Time not reached\");\r\n            require(block.timestamp > stop,\"Funding ungoing\");\r\n            uint amount = Payments[msg.sender];\r\n         payable(msg.sender).transfer(amount);\r\n         Payments[msg.sender] = 0;\r\n         emit refund(msg.sender,msg.value);\r\n          return true;\r\n        }\r\n       \r\n\r\n\r\n    function Balance()external view returns(uint){\r\n        return address(this).balance;\r\n    }\r\n  \r\n\r\n}",
  "sourcePath": "C:\\Users\\MAYOWA\\Desktop\\CrowdFunding\\contracts\\Crowdfunding.sol",
  "compiler": {
    "name": "solc",
    "version": "0.8.11+commit.d7f03943.Emscripten.clang"
  },
  "schemaVersion": "3.4.5",
  "updatedAt": "2022-06-13T02:22:11.549Z",
  "networkType": "ethereum",
  "devdoc": {
    "kind": "dev",
    "methods": {},
    "version": 1
  },
  "userdoc": {
    "kind": "user",
    "methods": {},
    "version": 1
  }
}